:060000000A128A1100291A
:10000800F000030EF1000B1918200B181020710EC8
:100018008300F00E700E090003138312061C850A74
:10002800861C85030B10080003138312D930810046
:100038000B11A00A2008323C031923280800A0014C
:04004800870A08001B
:10020000062127212E213B2143210529031783168F
:1002100088018901031383160510851005118511C6
:100220000313831606148614031383168113031312
:1002300083161514951403138316071087100711DE
:1002400087110313831285018601870108000313B8
:1002500083160F140F178F120F160800031383163F
:100260008112811101158114011403138312D930F5
:1002700081000B110800031383128B178B150B10D1
:100280008B160B1108000313831616149614031310
:08029000831206080B100800A0
:04400E00C430FF3F7C
:00000001FF
